:020000040800F2
:1000000000000220C1CE00080514000807140008F3
:10001000091400080B1400080D140008000000006B
:100020000000000000000000000000000F140008A5
:100030001114000800000000131400081514000833
:1000400011CF000811CF000811CF000811CF000810
:1000500011CF00081D14000811CF000811CF0008AF
:1000600011CF000811CF000811CF000811CF0008F0
:1000700011CF000811CF000811CF000811CF0008E0
:1000800011CF000811CF000811CF000811CF0008D0
:1000900011CF000811CF000811CF00081F1400086D
:1000A00011CF000811CF000811CF000811CF0008B0
:1000B0003114000811CF000811CF000811CF00083B
:1000C00011CF000811CF000811CF000811CF000890
:1000D00011CF00084114000811CF000811CF00080B
:1000E00011CF000811CF000811CF000811CF000870
:1000F00011CF000811CF000811CF000811CF000860
:1001000011CF00085114000811CF000811CF0008CA
:1001100011CF000811CF000811CF000811CF00083F
:100120006114000811CF000811CF000871140008F5
:1001300011CF00088114000811CF000811CF00086A
:1001400011CF000811CF000811CF000811CF00080F
:1001500011CF000891140008A114000811CF000865
:1001600011CF000811CF000811CF000811CF0008EF
:1001700011CF000811CF000811CF000811CF0008DF
:0801800011CF0008B1140008C2
:1001900010B5054C237833B9044B13B10448AFF3C1
:1001A00000800123237010BD7800002000000000B3
:1001B000C4E1000808B5034B1BB103490348AFF382
:1001C000008008BD000000007C000020C4E10008A1
:1001D00001F0FF01102A2BDB10F0070F08D010F8F8
:1001E000013B013A8B422DD010F0070F42B3F6D1FC
:1001F000F0B441EA012141EA014122F007047FF015
:1002000000070023F0E80256083C85EA010586EA6B
:10021000010685FA47F5A3FA87F586FA47F6A5FAA7
:1002200087F68EB9EED1F0BC01F0FF0102F00702B3
:1002300032B110F8013B013A83EA010313B1F8D15E
:100240000020704701387047002D06BF354603383F
:10025000073815F0010F07D1013015F4807F02BF78
:10026000013015F4C03F0130F0BC0138704700BFC9
:1002700053B94AB9002908BF00281CBF4FF0FF310D
:100280004FF0FF3000F074B9ADF1080C6DE904CE09
:1002900000F006F8DDF804E0DDE9022304B0704761
:1002A0002DE9F047089D04468E46002B4DD18A4229
:1002B000944669D9B2FA82F252B101FA02F3C2F15C
:1002C000200120FA01F10CFA02FC41EA030E9440ED
:1002D0004FEA1C48210CBEFBF8F61FFA8CF708FB0E
:1002E00016E341EA034306FB07F199420AD91CEBE6
:1002F000030306F1FF3080F01F81994240F21C8118
:10030000023E63445B1AA4B2B3FBF8F008FB10335F
:1003100044EA034400FB07F7A7420AD91CEB040494
:1003200000F1FF3380F00A81A74240F20781644464
:10033000023840EA0640E41B00261DB1D4400023E9
:10034000C5E900433146BDE8F0878B4209D9002D4D
:1003500000F0EF800026C5E9000130463146BDE8D7
:10036000F087B3FA83F6002E4AD18B4202D3824241
:1003700000F2F980841A61EB030301209E46002DF0
:10038000E0D0C5E9004EDDE702B9FFDEB2FA82F245
:10039000002A40F09280A1EB0C014FEA1C471FFAA3
:1003A0008CFE0126200CB1FBF7F307FB131140EA8A
:1003B00001410EFB03F0884208D91CEB010103F157
:1003C000FF3802D2884200F2CB804346091AA4B219
:1003D000B1FBF7F007FB101144EA01440EFB00FEED
:1003E000A64508D91CEB040400F1FF3102D2A64552
:1003F00000F2BB800846A4EB0E0440EA03409CE7F1
:10040000C6F12007B34022FA07FC4CEA030C20FA9D
:1004100007F401FA06F31C43F9404FEA1C4900FABD
:1004200006F3B1FBF9F8200C1FFA8CFE09FB18113A
:1004300040EA014108FB0EF0884202FA06F20BD9AD
:100440001CEB010108F1FF3A80F08880884240F2FD
:100450008580A8F102086144091AA4B2B1FBF9F041
:1004600009FB101144EA014100FB0EFE8E4508D93C
:100470001CEB010100F1FF346CD28E456AD90238C1
:10048000614440EA0840A0FB0294A1EB0E01A142A6
:10049000C846A64656D353D05DB1B3EB080261EB14
:1004A0000E0101FA07F722FA06F3F1401F43C5E9EE
:1004B000007100263146BDE8F087C2F12003D84024
:1004C0000CFA02FC21FA03F3914001434FEA1C4766
:1004D0001FFA8CFEB3FBF7F007FB10360B0C43EA58
:1004E000064300FB0EF69E4204FA02F408D91CEB08
:1004F000030300F1FF382FD29E422DD90238634406
:100500009B1B89B2B3FBF7F607FB163341EA0341A5
:1005100006FB0EF38B4208D91CEB010106F1FF38F4
:1005200016D28B4214D9023E6144C91A46EA0046EB
:1005300038E72E46284605E70646E3E61846F8E67D
:100540004B45A9D2B9EB020864EB0C0E0138A3E7C6
:100550004646EAE7204694E74046D1E7D0467BE7A7
:10056000023B614432E7304609E76444023842E71F
:10057000704700BF72B6FEE700B595B0302200218B
:1005800008A80CF011FD0023039304930593069330
:1005900007930193214A116C41F080511164126C50
:1005A00002F080520192019A02931D4B1A6842F4A4
:1005B00080421A601B6803F480430293029B052368
:1005C00008934FF48033099301230A9302230E9377
:1005D0004FF480020F9204221092A82211921293DB
:1005E0000723139308A801F003F898B90F23039386
:1005F00002230493002305934FF4A05306934FF472
:1006000080530793052103A801F058FA20B915B0CB
:100610005DF804FBFFF7AEFFFFF7ACFF00380240C8
:100620000070004008B501F07FFFFFF7A5FF00F064
:1006300039F804F04BFA00F0F1FA00F063F900F039
:10064000C7F900F063FB03F0DBFF04F0C3FD0CF01F
:10065000DBFB04F025FD0F480CF014FE0E4800F003
:10066000E1FB0E4C01224021204601F099FC4FF4A1
:10067000FA7001F085FF00224021204601F090FC35
:100680000021074803F058FB00F04CFE04F034FE54
:10069000FAE700BFDCE1000894000020000C0240F3
:1006A000842200202DE9F0438FB0002409940A949D
:1006B0000B940C940D940194604B1A6B42F004025D
:1006C0001A631A6B02F004020192019A02941A6BE7
:1006D00042F020021A631A6B02F020020292029A80
:1006E00003941A6B42F080021A631A6B02F08002C4
:1006F0000392039A04941A6B42F001021A631A6B74
:1007000002F001020492049A05941A6B42F002026C
:100710001A631A6B02F002020592059A06941A6B8C
:1007200042F040021A631A6B02F040020692069AE7
:1007300007941A6B42F010021A631A6B02F010024F
:100740000792079A08941A6B42F008021A631B6B0F
:1007500003F008030893089BDFF8F08022464AF272
:100760000801404601F01CFC354E012210213046A4
:1007700001F016FC334F22464EF22F01384601F0AD
:100780000FFC22464FF48071304601F009FCDFF87F
:10079000C09022464021484601F002FC4AF208037C
:1007A000099301250A950B940C9409A9404601F080
:1007B00005FB102309930A950B950C9409A9304663
:1007C00001F0FCFA4EF22F0309930A950B940C9456
:1007D00009A9384601F0F2FA4FF48078CDF8248068
:1007E0000A950B940C9409A9304601F0E7FA4023CE
:1007F00009930A950B940C9409A9484601F0DEFA76
:100800004FF4806309930A940B9409A90E4801F0F0
:10081000D5FACDF824804FF488130A930B9409A9D4
:10082000384601F0CBFA22462146172001F0FCFDA4
:10083000172001F031FE0FB0BDE8F0830038024010
:10084000000002400004024000180240001C024068
:10085000000C0240F0B587B000230193029303938C
:1008600004930593214B1B680BB107B0F0BD1F4BE0
:1008700001221A60002600961D4B9A6B42F001027D
:100880009A639B6B03F001030093009B4FF23F03BD
:10089000019302270297032504950C24059401A9CE
:1008A000144801F08BFA40F23F230193029703961C
:1008B0000495059401A9104801F080FA4FF6807361
:1008C0000193029703960495059401A90B4801F042
:1008D00075FA4FF6B3730193029703960495059446
:1008E00001A9074801F06AFABFE700BF9C20002079
:1008F000003802400014024000180240001002407C
:10090000000C024000B589B00022019202920392CD
:10091000049205920692079229484FF02043036003
:1009200003F58273436082600223C3600423036182
:10093000102343618261C261026242624FF48053BC
:100940008362C2620263426382634264032301934F
:100950000823039301A901F027FE002829D1194893
:100960004FF02043036003F58273436002238360EA
:100970000022C2600261102343618261C26102628F
:1009800042624FF480538362C262026342638263B5
:100990004264032301930292082303930492059275
:1009A0000692079201A901F0FFFD28B909B05DF890
:1009B00004FBFFF7DFFDD2E7FFF7DCFDF6E700BF42
:1009C000A0200020F020002008B5FFF743FF08BD5D
:1009D00008B50D480D4B0360002343608360C3607E
:1009E000036143610223836102F060FC30B94FF47C
:1009F0000061054802F076FC18B908BDFFF7BAFDA2
:100A0000F5E7FFF7B7FDF8E700220020002C0140D2
:100A10002DE9F04389B000230393049305930693D3
:100A200007930268514B9A4202D009B0BDE8F083A7
:100A300004460025009503F586335A6C42F40062A3
:100A40005A645A6C02F400620092009A01951A6B83
:100A500042F004021A631A6B02F004020192019A36
:100A600002951A6B42F008021A631B6B03F008032D
:100A70000293029B4FF4F85303934FF00209CDF811
:100A80001090032606964FF00C08CDF81C800DEB55
:100A90000801374801F092F904270397CDF8109028
:100AA00005950696CDF81C800DEB0801314801F044
:100AB00085F93148314B03604FF000634360856036
:100AC000C5604FF4806303614FF4805343614FF47A
:100AD000804383612023C3614FF440330362476244
:100AE00086624FF40003C3624FF40013036301F006
:100AF000D7FA002833D1204B23649C632048214B34
:100B000003604FF000634360402383600023C360B1
:100B10004FF4806303614FF4805343614FF480438B
:100B200083612023C3614FF4403303620423436293
:100B3000032383624FF40003C3624FF40013036383
:100B400001F0AEFA70B90E4BE3639C6300221146CC
:100B5000312001F069FC312001F09EFC65E7FFF7D0
:100B600009FDC8E7FFF706FDEDE700BF002C0140D7
:100B700000080240000C024040210020586402405E
:100B8000A0210020A06402400368B3F1804F00D090
:100B9000704700B583B00021019103F50E331A6C44
:100BA00042F001021A641B6C03F001030193019BE4
:100BB0000A461C2001F038FC1C2001F06DFC03B03B
:100BC0005DF804FB00B587B0002301930293039303
:100BD000049305930368B3F1804F02D007B05DF82A
:100BE00004FB002300930B4B1A6B42F001021A63C3
:100BF0001B6B03F001030093009B4FF40043019330
:100C0000022302930123059301A9034801F0D6F8BA
:100C1000E4E700BF003802400000024000B58FB09A
:100C200000230A930B930C930D930893099301935C
:100C300002930393049305930693079322484FF07E
:100C400080420260A322426083600922C260036185
:100C50008023836102F0D6FE30BB4FF480530A93A9
:100C60000AA9194802F0D9FF08BB174802F0F6FE9E
:100C700000BB00230893099308A9134803F0DEF88A
:100C8000D8B96023019304230293002203920592B2
:100C90000DEB03010C4802F045FF88B90A48FFF745
:100CA00091FF0FB05DF804FBFFF764FCD5E7FFF799
:100CB00061FCDAE7FFF75EFCDBE7FFF75BFCE0E7F0
:100CC000FFF758FCEAE700BF8422002010B582B08D
:100CD00004468DF804004FF6FF73012201A9034872
:100CE00003F04DFA204602B010BD00BF2C230020B7
:100CF00070B50C461646002504E014F8010BFFF70A
:100D0000E5FF0135B542F8DB304670BD08B50A484D
:100D10000A4B03604FF4E133436000238360C360F8
:100D200003610C2242618361C36103F0F9F900B9E8
:100D300008BDFFF71FFCFBE72C230020001001403B
:100D400070B588B00023039304930593069307932B
:100D5000026803F1804303F588339A4201D008B05A
:100D600070BD04460025019503F594335A6C42F09A
:100D700010025A645A6C02F010020192019A029514
:100D80001A6B42F001021A631B6B03F0010302931A
:100D9000029B4FF4C0630393022304930326069639
:100DA0000723079303A9164801F008F81548164BC6
:100DB00003604FF00063436040238360C5604FF4DD
:100DC0008063036145618561C5614FF4403303620F
:100DD000042343628662C562056301F061F958B974
:100DE000084B63639C6300221146252001F01CFB25
:100DF000252001F051FBB2E7FFF7BCFBF0E700BF95
:100E000000000240CC220020B86402404FF0C043F2
:100E1000036000F500500123037102234371062390
:100E200083717047F8B5044614200CF097F85B4BBB
:100E30001860002505705A4B1D605A4B1D605A4BB7
:100E40001D605A4B1D705A4F4FF4006632462946BA
:100E500038460CF0A9F832462946B8190CF0A4F827
:100E6000544F32462946A7F1F8000CF09DF832465F
:100E7000294607F5E1600CF097F83246294607F657
:100E800008700CF091F84C4F3246294607F5C260C5
:100E90000CF08AF83246294607F561600CF084F8B8
:100EA000464F3246294607F5A3600CF07DF83246DE
:100EB000294607F618500CF077F8414F324629467C
:100EC00007F584600CF070F83246294607F5426059
:100ED0000CF06AF83B4F3246294607F54A700CF091
:100EE00063F83246294607F628300CF05DF8364F95
:100EF0003246294607F50C700CF056F83246294662
:100F000007F523600CF050F82046FFF77FFF04F54B
:100F100000535B79022B1AD000224FF480712B48CA
:100F200001F03EF82A4D01224FF40051284601F00D
:100F300037F800224FF48041284601F031F80022B2
:100F40004FF40041284601F02BF800230BE001226A
:100F50004FF480711D4801F023F8E3E704EB4302EE
:100F6000002191800133B3F5805FF7DB01224FF45C
:100F70000041184801F014F8022001F001FB164C62
:100F800001224021204601F00BF8142001F0F8FA6C
:100F900000224021204601F003F8F8BD8C230020F8
:100FA000A8230020942300209C23002088230020D5
:100FB00000000064F8100064F0210064E83200646E
:100FC000E0430064D8540064D0650064000002402F
:100FD00000040240001C0240000C024030B53C4BB3
:100FE000B3F90010002938D03A4C22684FF0C043C2
:100FF0001D88394820F812501D8800EB4200A0F8E7
:1010000000581D88354800EB420020F8F85C1D8828
:10101000A0F808571D88A0F8085F1D88304800EB2D
:101020004200A0F810561D88A0F8105E501C2060E9
:101030001C882C4B03EB4202A2F81845B0F5806FD8
:1010400000D030BD234B00221A60C1F10101204BBA
:101050001980254B01221A80F3E71E4D2B684FF0B3
:10106000C04214881F4800EB4300A0F8184D1488B4
:101070001E4800EB4300A0F820441488A0F8204C40
:1010800014881B4800EB4300A0F82843B2F800E0A6
:10109000184C04EB430CACF838E11488A0F8284B4A
:1010A0001488154800EB4300A0F8304201332B6050
:1010B0001288A0F8302AB3F5806FC2D100222A60CE
:1010C000C1F10101024B1980074B01221A80B8E7D8
:1010D000AC230020A423002000000064F81000646A
:1010E000F0210064E8320064A0230020E0430064A3
:1010F000D8540064C8760064D06500642DE9F04FD0
:1011000083B000AF8C4679607C4B1E787C4C40F6F7
:101110001A0306FB03F3E218FF21E1545170FE238A
:101120009370D37000231371764CE17801F5FA6562
:101130002D0A5571303991716178D171A178117290
:1011400071490C7854724C7894728978D1726F49D5
:10115000096811730121517382F80EC00421D17303
:101160001374112410E030F91350611C89B2644AE1
:1011700040F61A0C0CFB06222D12155530F91350AF
:101180000234A4B255540133B3F5806FEBDB611C1C
:1011900089B25B4B40F61A0202FB06331E55A21CB5
:1011A00092B24FF0000E03F801E004F1030A1FFAB7
:1011B0008AF1396003F802E0CAF38D0A4FEA8A0324
:1011C000073323F00703ADEB030D69467346724600
:1011D0003BE003F101081FFA88F8494DDFF81CC114
:1011E0009CF8000040F61A0606FB0050C05C0006A2
:1011F00041F8220003F102091FFA89F99CF800B0B6
:1012000006FB0B5B1BF8088000EB084041F822004E
:1012100003F103081FFA88F89CF800B006FB0B5B8B
:101220001BF8099000EB092041F8220004339BB21F
:101230009CF800C006FB0C5515F80850284441F8EE
:101240002200013292B20EF1010EF245C1DC3048AB
:101250000BF011FE0346294A1678251DADB2020E89
:1012600040F61A01264801FB06003E688255621DC1
:1012700092B2C3F307464655A51DADB2C3F3072688
:101280008654E21D92B2435504F108039BB2FE243A
:101290008454C4547A6803F08DFF40B2A8B91D4A43
:1012A0001368013313601548037801331A4A82FB2F
:1012B00003121A4422F00F01A1EB2212A3EB420306
:1012C00003700C37BD46BDE8F08F0C4B187840F624
:1012D0001A017A680A4B01FB003003F06BFF41B240
:1012E00039B90C4A1368013313600C480BF044FF02
:1012F000D9E70B4A136801331360F6E798230020FF
:101300000000001070230020742300209023002090
:10131000806301209423002089888888F4E10008F4
:101320009C2300202A4BB3F90030012B00D07047DA
:10133000F0B587B0274C284D00222146284603F0FF
:1013400074FB00222549284603F097FB6378244A62
:101350001278934214D11E4B00221A80214A13683E
:1013600001331360204BB3F900302BB301211F4828
:10137000FFF7C4FE02211E48FFF7C0FE07B0F0BD14
:10138000164A92F803C02078A7781A4D2E68049662
:10139000194E316803910297019300909378527827
:1013A0000CF5FA6115480BF0E7FE002333602B6063
:1013B00062780B4B1A70CEE7114C01212046FFF7E3
:1013C0009DFE022104F50060FFF798FED6E700BFFE
:1013D000A023002074230020B423002070230020C9
:1013E0008823002090230020AC23002000400064CC
:1013F000004800649C2300209423002000E20008A1
:1014000000000064FEE7FEE7FEE7FEE7FEE7704748
:101410007047704708B501F0A1F808BD704708B5DE
:10142000FFF7DCFD4FF4807000F0C2FD08BD000046
:1014300008B5024802F0C5F908BD00BF84220020AB
:1014400008B5024802F092FF08BD00BF2C2300201F
:1014500008B5024801F0FCFF08BD00BF00220020D3
:1014600008B5024800F0E0FE08BD00BFD42300200C
:1014700008B5024800F0D8FE08BD00BF402100209A
:1014800008B5024804F030FA08BD00BFD854002067
:1014900008B5024800F0C8FE08BD00BFA02100202A
:1014A00008B5024800F0C0FE08BD00BFCC220020F5
:1014B0007047000010B582B000240094124B5A6CA3
:1014C00042F480425A645A6C02F480420092009ABC
:1014D00001941A6C42F080521A641B6C03F0805322
:1014E0000193019B22462146052000F09DFF052027
:1014F00000F0D2FF22462146512000F095FF5120F6
:1015000000F0CAFF02B010BD0038024070B40C6891
:1015100050F82430134E1E404A688D6842EA050395
:10152000CA6813430A6913434A6913438A69134318
:10153000CA6913430A6A13434A6A13438A6A134304
:10154000CA6A1343CA6B13430A6B13433343082D10
:1015500004D040F82430002070BC704743F04003B2
:10156000F7E700BF8000F0FF10B5013250F82230DD
:1015700003F0404C0B684C6843EA04138C6843EA60
:101580000423CC6843EA04430C6904F1FF3E43EAB8
:101590000E534C69A4F1020E43EA0E6389690B43B2
:1015A00043EA0C0340F82230002010BDB3F5804F11
:1015B00005D06FF0704340F822300020704730B4FF
:1015C00050F82230094C1C400B684D6843EA051363
:1015D0008D6843EA0523CD6843EA054389690B43D7
:1015E000234340F82230002030BC70470000F0CF89
:1015F000002800F0E08170B582B00446036813F063
:10160000010F3BD09F4B9B6803F00C03042B2CD0A5
:101610009C4B9B6803F00C03082B21D06368B3F547
:10162000803F4FD0B3F5A02F52D0964B1A6822F4CA
:1016300080321A601A6822F480221A606368002BD4
:1016400050D000F097FF05468E4B1B6813F4003F07
:1016500014D100F08FFF401B6428F5D90320B1E1BD
:10166000884B5B6813F4800FD8D0864B1B6813F44B
:10167000003F03D06368002B00F09F81236813F0C4
:10168000020F54D07F4B9B6813F00C0F3ED07D4B64
:101690009B6803F00C03082B33D0E368002B68D061
:1016A000794B01221A6000F065FF0546754B1B68F7
:1016B00013F0020F54D100F05DFF401B0228F5D952
:1016C00003207FE16F4A136843F480331360B5E76A
:1016D0006C4B1A6842F480221A601A6842F4803215
:1016E0001A60ABE700F046FF0546664B1B6813F433
:1016F000003FC3D000F03EFF401B6428F5D9032013
:1017000060E1604B5B6813F4800FC6D15D4B1B68D2
:1017100013F0020F03D0E368012B40F05081594AC7
:10172000136823F0F803216943EAC10313602368B7
:1017300013F0080F42D063696BB3534B0122C3F817
:10174000802E00F017FF05464E4B5B6F13F0020F23
:1017500034D100F00FFF401B0228F5D9032031E1FE
:10176000484A136823F0F803216943EAC103136070
:10177000DDE7454B00221A6000F0FCFE0546414BB8
:101780001B6813F0020FD2D000F0F4FE401B0228B9
:10179000F5D9032016E13C4B0022C3F8802E00F05F
:1017A000E9FE0546374B5B6F13F0020F06D000F0E1
:1017B000E1FE401B0228F5D9032003E1236813F062
:1017C000040F77D02F4B1B6C13F0805F33D10023B5
:1017D00001932C4B1A6C42F080521A641B6C03F07C
:1017E00080530193019B0125284B1B6813F4807FD4
:1017F00023D0A368012B34D0052B38D0214B1A6F8E
:1018000022F001021A671A6F22F004021A67A36815
:10181000002B3DD000F0AEFE06461A4B1B6F13F0B6
:10182000020F46D100F0A6FE801B41F28833984299
:10183000F3D90320C6E00025D6E7144A136843F421
:101840008073136000F096FE0646104B1B6813F47D
:10185000807FCED100F08EFE801B0228F5D90320B8
:10186000B0E0084A136F43F001031367CFE7054B5D
:101870001A6F42F004021A671A6F42F001021A67E7
:10188000C5E700BF0038024000004742007000403A
:1018900000F070FE0646524B1B6F13F0020F08D08B
:1018A00000F068FE801B41F288339842F3D9032090
:1018B00088E0EDB9A369002B00F08380484A926864
:1018C00002F00C02082A51D0022B17D0454B0022FF
:1018D0001A6600F04FFE0446414B1B6813F0007F70
:1018E00042D000F047FE001B0228F5D9032069E032
:1018F0003B4A136C23F080531364DBE7394B00221F
:101900001A6600F037FE0546354B1B6813F0007F62
:1019100006D000F02FFE401B0228F5D9032051E02D
:10192000E369226A1343626A43EA8213A26A520895
:10193000013A43EA0243E26A43EA0263284A5360F7
:10194000284B01221A6600F015FE0446244B1B6842
:1019500013F0007F06D100F00DFE001B0228F5D920
:1019600003202FE000202DE000202BE0012B2BD0C6
:101970001B4B5B6803F48001E269914226D103F0BE
:101980003F02216A8A4223D1616A47F6C0721A4037
:10199000B2EB811F1ED103F44031A26A5208013A12
:1019A000B1EB024F18D103F07063E26AB3EB026F40
:1019B00014D1002006E001207047012002E0012040
:1019C00000E0002002B070BD0120FBE70120F9E734
:1019D0000120F7E70120F5E70120F3E70120F1E717
:1019E000003802400000474208B5314B9B6803F0C5
:1019F0000C03042B57D0082B57D12D4B5A6802F0FB
:101A00003F025B6813F4800F2AD0294B5968C1F359
:101A1000881C4FEA4C11B1EB0C006EEB0E0E4FEA36
:101A20008E1343EA90638101091A63EB0E03DB0016
:101A300043EA5173C90011EB0C0C43F10003590246
:101A400000234FEA4C2041EADC51FEF711FC184B11
:101A50005B68C3F3014301335B00B0FBF3F025E0A7
:101A6000134B5968C1F3881C4FEA4C11B1EB0C00C1
:101A70006EEB0E0E4FEA8E1343EA90638101091A52
:101A800063EB0E03DB0043EA5173C90011EB0C0C4E
:101A900043F10003990200234FEA8C2041EA9C5154
:101AA000FEF7E6FBD3E7034800E0034808BD00BFAC
:101AB0000038024000127A000024F400002800F0F0
:101AC0009B8070B50D4604464F4B1B6803F007031F
:101AD0008B4208D2CBB24C4A1370136803F0070351
:101AE0008B4240F08B80236813F0020F17D013F065
:101AF000040F04D0454A936843F4E053936023688D
:101B000013F0080F04D0414A936843F46043936094
:101B10003E4A936823F0F003A1680B439360236867
:101B200013F0010F32D06368012B21D09A1E012AD5
:101B300025D9364A126812F0020F61D033498A68FB
:101B400022F0030213438B6000F014FD06462F4B76
:101B50009B6803F00C036268B3EB820F16D000F0B1
:101B600009FD801B41F288339842F0D9032042E0FE
:101B7000264A126812F4003FE0D101203BE0234ADC
:101B8000126812F0007FD9D1012034E01E4B1B688F
:101B900003F00703AB4207D9EAB21B4B1A701B686C
:101BA00003F00703AB422DD1236813F0040F06D0D6
:101BB000164A936823F4E053E1680B43936023686B
:101BC00013F0080F07D0114A936823F4604321698A
:101BD00043EAC1039360FFF707FF0C4B9B68C3F315
:101BE00003130B4AD35CD8400A4B18600A4B1868A1
:101BF00000F074FC002070BD012070470120FAE75E
:101C00000120F8E70120F6E7003C024000380240DE
:101C100040E200080800002004000020014B186882
:101C2000704700BF0800002008B5FFF7F7FF044B1E
:101C30009B68C3F38223034AD35CD84008BD00BF2E
:101C40000038024050E2000808B5FFF7E7FF044BF8
:101C50009B68C3F34233034AD35CD84008BD00BF3E
:101C60000038024050E2000830B583B004460368F3
:101C700013F0050F06D1236813F0020F2ED10020B8
:101C800003B030BD4A4B00229A6600F073FC054653
:101C9000484B1B6813F0006F06D000F06BFC431B31
:101CA000022BF5D90320EBE76268A3681B0743EA20
:101CB0008213404AC2F884303D4B01229A6600F0FC
:101CC00059FC05463B4B1B6813F0006FD3D100F065
:101CD00051FC431B022BF5D90320D1E700230193CC
:101CE000344B1A6C42F080521A641B6C03F0805320
:101CF0000193019B304A136843F48073136000F032
:101D000039FC05462C4B1B6813F4807F06D100F08C
:101D100031FC431B022BF5D90320B1E7254B1B6F88
:101D200013F4407314D0E26802F440729A420FD068
:101D3000204B1A6F22F440721D490120C1F8400E59
:101D40000020C1F8400E1A671B6F13F0010F13D16A
:101D5000E36803F44072B2F5407F1ED0154A9368E1
:101D600023F4F813936013490B6FE268C2F30B027C
:101D700013430B67002083E700F0FCFB05460D4B87
:101D80001B6F13F0020FE3D100F0F4FB401B41F294
:101D900088339842F3D9032072E706498A6822F40F
:101DA000F81223F0704323F4407313438B60DAE797
:101DB00000004742003802400070004000230F2B13
:101DC00000F2E48070B582B060E085685E000324B4
:101DD000B44025EA0405CC68B4402C4384604568CF
:101DE00025EA02054C68C4F300129A402A43426077
:101DF0005AE0DC08083450F8246003F0070295002C
:101E00000F22AA4026EA020E0A69AA4042EA0E02FE
:101E100040F824205CE0072200E0002202FA0EF2E3
:101E20002A4302345A4D45F824205A4A14686FEA6E
:101E30000C0224EA0C054E6816F4803F01D04CEAEF
:101E40000405544C2560646802EA04054E6816F4E3
:101E5000003F01D04CEA04054E4C6560A46802EADC
:101E600004054E6816F4801F01D04CEA0405494C65
:101E7000A560E46822404D6815F4001F01D04CEACB
:101E80000402444CE26001330F2B7DD801229A40BA
:101E90000C6804EA020C32EA0404F4D14C6804F041
:101EA0000304013C012C90D94A6802F00302032A82
:101EB00009D0C4685D000322AA4024EA02048A68AB
:101EC000AA402243C2604A6802F00302022A90D06C
:101ED00004684FEA430E032202FA0EF224EA0204D7
:101EE0004A6802F0030202FA0EF2224302604A68D4
:101EF00012F4403FC7D000220192274A546C44F4A8
:101F000080445464526C02F480420192019A9C080D
:101F1000A51C1F4A52F8255003F003024FEA820E17
:101F20000F2202FA0EF225EA02051C4A90423FF403
:101F300074AF02F5806290421AD002F5806290423E
:101F400018D002F58062904216D002F5806290426D
:101F500014D002F58062904212D002F58062904265
:101F600010D002F5806290423FF455AF082255E749
:101F7000012253E7022251E703224FE704224DE7F3
:101F800005224BE7062249E702B070BD704700BF4B
:101F900000380140003C014000380240000002408F
:101FA0000AB1816170470904816170477047000080
:101FB00008B5054B5B69034200D108BD024B58616F
:101FC000FFF7F4FFF9E700BF003C014010B40368DD
:101FD000D9B210390C4AA2FB014212090B4CA25C87
:101FE000C2655F2909D923F47F7323F00303043307
:101FF0008365806D5DF8044B704723F47F7323F095
:1020000003038365F5E700BFABAAAAAA38E200087C
:10201000836A826992B9012B0AD0022B02D00BB1DC
:1020200000207047C36A13F0807F28D100207047DA
:10203000C36AB3F1C07F24D000207047B2F5005FBF
:1020400009D0022B25D9032B25D1C36A13F0807F39
:1020500023D100207047032B03D8DFE803F01404DA
:10206000140A00207047C36A13F0807F0DD100204E
:102070007047C36AB3F1C07F09D0002070470120C8
:1020800070470120704701207047012070470120F0
:102090007047012070470020704701207047000002
:1020A00070B5044600F066FA002C5BD005460223AA
:1020B00084F83530002384F834302268136823F024
:1020C0000103136023681A6812F0010F0AD000F0B0
:1020D00051FA431B052BF5D920236365032084F8AF
:1020E000350070BD1A68204810406168A2680A4334
:1020F000E1680A4321690A4361690A43A1690A4305
:10210000E1690A43216A0A430243616A04291ED035
:102110001A602668756925F00705636A1D43042B5C
:1021200007D1A36A1D43E36A1BB12046FFF770FF86
:1021300090B975612046FFF749FFE26D3F23934058
:10214000836000206065012384F83530C9E7E16AC7
:10215000206B01430A43DBE740236365012084F8D9
:102160003500BEE70120BCE73F8010F070B50446A3
:10217000866D00F0FFF994F83530DBB2022B06D003
:1021800080236365002384F83430012070BD054648
:102190002268136823F0160313602268536923F042
:1021A00080035361236CE3B12268136823F00803B2
:1021B00013602268136823F00103136023681B680F
:1021C00013F0010F11D000F0D5F9431B052BF5D901
:1021D00020236365032084F83500002384F834301D
:1021E000D4E7A36C002BDFD1E3E7E26D3F239340FC
:1021F000B360012384F83530002084F83400C5E74B
:1022000090F83530DBB2022B03D0802343650120E8
:102210007047052380F835300268136823F0010306
:102220001360002070470000F0B583B0044600231F
:102230000193724B1D68724BA3FB0535AD0A876D88
:102240003E68C26D08239340334210D003681A6879
:1022500012F0040F0BD01A6822F004021A60C26D4B
:1022600008239340BB60436D43F001034365E26D77
:1022700001239340334209D02268526912F0800F43
:1022800004D0BB60636D43F002036365E26D042319
:102290009340334209D02268126812F0020F04D032
:1022A000BB60636D43F004036365E26D10239340EC
:1022B000334224D02268126812F0080F1FD0BB608E
:1022C00023681A6812F4802F0DD01B6813F4002FB6
:1022D00004D1236C9BB12046984710E0A36C73B1E6
:1022E000204698470BE01A6812F4807F03D11A68E1
:1022F00022F008021A60236C0BB120469847E26D69
:1023000020239340334255D02268126812F0100FF8
:1023100050D0BB6094F83530DBB2052B0ED023686B
:102320001A6812F4802F33D01B6813F4002F2AD1BF
:10233000636C002B3ED0204698473BE02268136830
:1023400023F0160313602268536923F0800353615E
:10235000236CA3B12268136823F008031360E26DB5
:102360003F239340BB60012384F83530002384F879
:102370003430236D002B3FD0204698473CE0A36CBF
:10238000002BE7D1EBE7E36BA3B12046984711E0C0
:102390001A6812F4807F09D11A6822F010021A60BC
:1023A000012384F83530002384F83430E36B0BB11B
:1023B00020469847636DFBB1636D13F0010F17D092
:1023C000052384F835302268136823F00103136075
:1023D000019B01330193AB4204D823681B6813F0BF
:1023E000010FF5D1012384F83530002384F834300F
:1023F000E36C0BB12046984703B0F0BD0800002005
:10240000B5814E1B074AD36823F4E0631B041B0C01
:10241000000200F4E060034343F0BF6343F4003381
:10242000D360704700ED00E000B5194BDB68C3F3E3
:102430000223C3F1070CBCF1040F28BF4FF0040CBA
:1024400003F1040EBEF1060F18D9033B4FF0FF3E17
:102450000EFA0CFC21EA0C0199400EFA03F322EA71
:102460000303194300280BDB0901C9B200F16040E6
:1024700000F5614080F800135DF804FB0023E5E7F8
:1024800000F00F000901C9B2024B1954F4E700BF74
:1024900000ED00E014ED00E0002807DB00F01F0273
:1024A000400901239340024A42F82030704700BFA0
:1024B00000E100E00138B0F1807F0BD24FF0E02363
:1024C0005861054AF02182F8231000209861072204
:1024D0001A6170470120704700ED00E010B5044616
:1024E0000E4B18784FF47A73B3FBF0F30C4A106874
:1024F000B0FBF3F0FFF7DEFF68B90F2C01D9012024
:102500000AE0002221464FF0FF30FFF78DFF054B18
:102510001C60002000E0012010BD00BF0000002072
:10252000080000200400002008B50B4B1A6842F494
:1025300000721A601A6842F480621A601A6842F4E3
:1025400080721A600320FFF75DFF0F20FFF7C6FFC0
:10255000FEF7B0FF002008BD003C0240034A1168AE
:10256000034B1B780B441360704700BFB02300205F
:1025700000000020014B1868704700BFB023002006
:1025800038B50446FFF7F6FF0546B4F1FF3F02D029
:10259000044B1B781C44FFF7EDFF401BA042FAD30D
:1025A00038BD00BF0000002028B370B50E461546A8
:1025B000044690F84930CBB1214651F8080BFEF79C
:1025C000A5FFA26831462068FEF7CEFF236BA26804
:1025D00029466068FEF7EAFF2268A16852F82130B8
:1025E00043F0010342F82130002070BD80F84830EC
:1025F000FEF7EAF9E0E70120704700000B4B1B688B
:102600000B4AA2FB03235B0A41F2883202FB03F36D
:102610001A46013B3AB1426B12F0800FF8D0C52345
:102620008363002070474FF000407047080000208F
:10263000D34D62100146144B1B68144AA2FB0323BE
:102640005B0A41F2883202FB03F31A46013BBAB13E
:102650004A6B12F0450FF8D012F4006FF5D14B6BB6
:1026600013F0040F06D1486B10F0010005D1C5230B
:102670008B6370470420886370470120886370472C
:102680004FF00040704700BF08000020D34D62109B
:102690000146104B1B68104AA2FB03235B0A41F260
:1026A000883202FB03F31A46013B82B14A6B12F0F7
:1026B000450FF8D012F4006FF5D1486B10F004000C
:1026C00002D1C5238B6370470420886370474FF0A5
:1026D0000040704708000020D34D62100146164BA1
:1026E0001B68164AA2FB03235B0A41F2883202FBF5
:1026F00003F31A46013BE2B14A6B12F0450FF8D0E2
:1027000012F4006FF5D14B6B13F0040F0BD14B6B30
:1027100013F001030AD1486B10F040000BD04022A7
:102720008A631846704704208863704701208863D5
:1027300070474FF00040704708000020D34D6210F2
:1027400084B00DF1040C8CE80E000B461343039A81
:102750001343049A1343059A1343069A134342689A
:1027600022F4FD4222F07F0213434360002004B0B4
:102770007047D0F8800070470B68C0F880300020A8
:10278000704708B5032303600220FFF7F9FE00201D
:1027900008BD006800F0030070470B6883604B6859
:1027A0008A681343CA6813430A691343C26822F450
:1027B0007F6222F00F021343C3600020704700695C
:1027C000C0B27047143040587047000038B5044616
:1027D0000D46504B1B685049A1FB03135B0A03FBDA
:1027E00002F21346013A002B5DD0636B13F0450FE4
:1027F000F7D013F4006FF4D1636B13F0040F06D11C
:10280000636B13F0010F05D00120A0634DE004209D
:10281000A0634AE0C523A3632046FFF7D0FFA84288
:1028200001D0012041E000212046FFF7CBFF034605
:102830003A481840C8B3002B38DB13F0804F38D12A
:1028400013F0005F37D113F0805F36D113F0006FC3
:1028500036D113F0806F36D113F0807F36D113F468
:10286000000F36D113F4800F36D113F4001F36D188
:1028700013F4801F36D113F4802F36D113F4003FA8
:1028800036D113F4803F36D113F4004F36D113F410
:10289000804F36D113F4005F36D113F0080F36D0D5
:1028A0004FF4000001E04FF0004038BD4FF00070E1
:1028B000FBE74020F9E78020F7E74FF48070F4E76A
:1028C0004FF40070F1E74FF48060EEE74FF40060E2
:1028D000EBE74FF48050E8E74FF40050E5E74FF4A2
:1028E0008040E2E74FF40040DFE74FF40030DCE7E0
:1028F0004FF48020D9E74FF40020D6E74FF4801042
:10290000D3E74FF40010D0E74FF48000CDE74FF449
:102910008030CAE708000020D34D621008E0FFFDB8
:10292000F8B505460E461746234B1B68234AA2FB03
:1029300003235B0A41F2883202FB03F31A46013B90
:102940008AB36C6B14F0450FF8D014F4006FF5D116
:102950006B6B13F0040F06D16B6B13F0010F05D0F6
:102960000120A86321E00420A8631EE02846FFF7A9
:1029700026FFB04201D0012017E0C523AB63002140
:102980002846FFF71FFF034610F4604008D013F4F9
:10299000804F0BD113F4004F0BD04FF4805004E064
:1029A0001B0C3B8001E04FF00040F8BD4FF400509D
:1029B000FBE74FF48030F8E708000020D34D6210A9
:1029C0000B6843624B6883628B68CA6813430A6969
:1029D00013434A691343C26A22F0F7021343C362E6
:1029E0000020704730B587B004460191102502954C
:1029F00040230393002304934FF48063059301A9BC
:102A0000FFF7CBFE41F2883229462046FFF7DEFE73
:102A100007B030BD30B587B00446002301930C25C4
:102A200002954022039204934FF48063059301A919
:102A3000FFF7B3FE034A29462046FFF7C7FE07B05B
:102A400030BD00BF00E1F50530B587B00446019206
:102A50000725029540230393002304934FF48063DA
:102A6000059301A9FFF799FE41F2883229462046D5
:102A7000FFF7ACFE07B030BD10B586B004460023AA
:102A800001930293039304934FF48063059301A988
:102A9000FFF783FE2046FFF7B1FD06B010BD10B56D
:102AA00086B004464FF4D573019308230293402364
:102AB0000393002304934FF48063059301A9FFF768
:102AC0006CFE2046FFF70AFE06B010BD30B587B099
:102AD0000446019137250295402303930023049374
:102AE0004FF48063059301A9FFF757FE41F2883246
:102AF00029462046FFF76AFE07B030BD10B586B004
:102B0000044641F0004141F48011019129230293D0
:102B100040230393002304934FF48063059301A99A
:102B2000FFF73BFE2046FFF7B3FD06B010BD30B502
:102B300087B00446019106250295402303930023A4
:102B400004934FF48063059301A9FFF726FE41F239
:102B5000883229462046FFF739FE07B030BD30B530
:102B600087B0044600230193332502954022039247
:102B700004934FF48063059301A9FFF70EFE41F221
:102B8000883229462046FFF721FE07B030BD10B538
:102B900086B004460023019302220292C0220392CF
:102BA00004934FF48063059301A9FFF7F6FD2046D7
:102BB000FFF740FD06B010BD10B586B00446019188
:102BC00009230293C0230393002304934FF48063EB
:102BD000059301A9FFF7E1FD2046FFF72BFD06B0A5
:102BE00010BD70B586B004460D4600230193032640
:102BF00002964022039204934FF48063059301A947
:102C0000FFF7CBFD2A4631462046FFF789FE06B086
:102C100070BD30B587B0044601910D250295402363
:102C20000393002304934FF48063059301A9FFF7F6
:102C3000B4FD41F2883229462046FFF7C7FD07B0B0
:102C400030BD000070B582B00446002301930068D7
:102C5000FFF712FF054610B1284602B070BD20688C
:102C6000FFF71DFF38B90123A364A36C012B0BD020
:102C70002E46284614E00023A3642068FFF7FCFEDC
:102C80000028F2D00546E7E700212068FFF71EFF85
:102C90000028EDD04FF08055DEE7019B0133019312
:102CA000019A4FF6FE739A4213D896B90021206814
:102CB000FFF70CFFE0B912492068FFF71FFF064637
:102CC000C0B900212068FFF77DFDC30FE5D01E4687
:102CD000E3E7019A4FF6FE739A420ED810F0804354
:102CE00002D001236364B7E7002262641D46B3E7A4
:102CF0000546B1E74FF08055AEE74FF08075ABE782
:102D0000000010C1F8B5846AC66AA6B9F8BD386873
:102D1000FFF72FFD2070C0F307236370C0F3074354
:102D2000A370000EE0700434043E0135072DEED987
:102D3000BC62FE62EAE707460025F7E7F0B583B01C
:102D4000046A466ADEB903B0F0BD23780193627865
:102D500043EA02230193A27843EA02430193E27813
:102D600043EA026301930434043E01A93868FFF783
:102D700003FD0135072DE8D93C627E62E3E7074693
:102D80000025F7E7F0B589B004460F46FFF7F2FBE0
:102D9000064600230093019308212068FFF722FED6
:102DA000054610B1284609B0F0BD216D0904206820
:102DB000FFF78CFE05460028F4D14FF0FF33029355
:102DC00008230393302304930223059300230693DF
:102DD0000123079302A92068FFF7F2FD2068FFF79F
:102DE000BEFE054658B1DDE7FFF7C3FC4DF82500F0
:102DF0000135FFF7BFFB831BB3F1FF3F3FD02068D6
:102E0000436B13F02A0F07D1436B13F4001FEBD170
:102E1000436B13F4005FECD1436B13F0080F25D123
:102E2000436B13F0020F24D1456B15F0200523D11D
:102E300040F23A538363019A130203F47F0343EA97
:102E40000263110A01F47F410B4343EA12633B60C2
:102E5000009A130203F47F0343EA0263110A01F4A8
:102E60007F410B4343EA12637B609BE70825856340
:102E700098E70225856395E72025856392E74FF063
:102E800000458FE710B582B0044600210091019102
:102E90000068FFF797FC10F0007F13D169462046C9
:102EA000FFF770FF80B9019B13F4802F0ED0216DC6
:102EB00009042068FFF70AFE30B902212068FFF7F5
:102EC00036FE01E04FF4006002B010BD4FF08060AC
:102ED000FAE710B582B00446002100910191006824
:102EE000FFF770FC10F0007F13D169462046FFF712
:102EF00049FF80B9019B13F4803F0ED0216D090476
:102F00002068FFF7E3FD30B900212068FFF70FFECE
:102F100001E04FF4006002B010BD4FF08060FAE7AE
:102F200070B581B104460E46016D09040068FFF7D3
:102F300070FE054608B1284670BD00212068FFF7E5
:102F400041FC3060F7E74FF00065F4E770477047E9
:102F500070477047436E9B0F0B70436EC3F38363E0
:102F60004B7090F8673003F003038B7090F8663075
:102F7000CB7090F865300B7190F864304B71836EB4
:102F80001B0DCB80B0F86A3003F00F030B72836E19
:102F9000C3F3C0334B72836EC3F380338B72836E83
:102FA000C3F34033CB72836EC3F300330B73002340
:102FB0004B73436C002B40F08680826E40F6FC73AE
:102FC00003EA8203C26E43EA92730B61C36EC3F3DA
:102FD000C2630B7590F86F3003F007034B75C36E37
:102FE000C3F342538B75C36EC3F38243CB75C36E79
:102FF000C3F3C2330B760B69013343650A7E02F0DB
:1030000007020232934043650A7A02F00F0C012254
:1030100002FA0CF28265520A02FB03F3C3654FF415
:1030200000730366C36EC3F380334B76C36EC3F382
:10303000C6138B76C36E03F07F03CB76036FDB0F73
:103040000B77036FC3F341734B77036FC3F3826353
:103050008B77036FC3F38353CB77036FC3F3405373
:1030600081F82030002381F82130B0F8722002F07E
:10307000010281F82220026FC2F3C03281F82320BE
:10308000026FC2F3803281F82420026FC2F3403213
:1030900081F82520026FC2F3003281F82620026FEA
:1030A000C2F3812281F82720026FC2F3012281F846
:1030B0002820026FC2F3460281F82920012281F8FC
:1030C0002A2018467047012B11D1836E1B0403F48C
:1030D0007C13B0F86E2013430B610B6901339B0224
:1030E0004365C3654FF40073836503669AE703681D
:1030F000054A9A63836B43F080538363012380F80E
:1031000034301846704700BFFF05400070B590B0DE
:1031100004460123ADF812300068FFF73AFB00289F
:103120006CD0636C032B45D1636C032B5DD1636C56
:10313000032B1DD0BDF81210216509042068FFF78C
:103140003BFD054600285BD100212068FFF73AFBD4
:10315000606604212068FFF735FBA066082120681F
:10316000FFF730FBE0660C212068FFF72BFB2067A0
:1031700004212068FFF726FB000DE06405A9204626
:10318000FFF7E8FE00283ED1226D120400232068DC
:10319000FFF75AFC054698BB234653F8106B93E89B
:1031A00007008DE80700043494E80E003046FFF76E
:1031B000C7FA25E02068FFF7EAFC054600BB0021BE
:1031C0002068FFF7FFFA606704212068FFF7FAFA2A
:1031D000A06708212068FFF7F5FAE0670C21206856
:1031E000FFF7F0FAC4F880009EE70DF112012068A5
:1031F000FFF7F7FC0546002899D001E04FF0806505
:10320000284610B070BD4FF08055F9E770B58AB010
:1032100004460023049305930693079308937623AB
:1032200009930AAB13E907008DE8070004AB0ECB46
:103230002068FFF785FA18B1012528460AB070BD4D
:103240000546184E0023C6F8A0302068FFF799FA0B
:103250000123C6F8A0302046FFF7F4FC30B1012569
:1032600084F83450A36B0343A363E6E72046FFF7DB
:103270004DFF30B1012584F83450A36B0343A363A1
:10328000DBE74FF400712068FFF7ACFB0028D4D0D7
:10329000236805499963A36B0343A363012584F85D
:1032A0003450CAE700802542FF054000A8B110B5A0
:1032B000044690F8343063B1032384F83430204658
:1032C000FFF7A4FF58B9A0632063012384F83430CA
:1032D00010BD0377FDF79CFBEEE70120704701204E
:1032E000F6E7000030B58BB004460D46032380F8A6
:1032F0003430436C032B1CD0B1F5805F08D0B1F59E
:10330000006F0AD079B1836B43F00063836314E0EC
:10331000836B43F0805383630FE0FFF7B3FDA36B30
:103320000343A36309E0FFF7D4FDA36B0343A36347
:1033300003E0836B43F080538363A36BC3B12368C3
:10334000174A9A63012584F834504FF400712068BD
:10335000FFF748FB30B1236811499963A36B03431E
:10336000A3630125012384F8343028460BB030BD17
:1033700063680493A3680593E368069307956369FC
:103380000893A36909930AAB13E907008DE80700C6
:1033900004AB0ECB2068FFF7D3F90025D5E700BFBB
:1033A000FF05400010B582B004460023019301A937
:1033B000FFF7B6FD10B1A36B0343A3630198C0F3FD
:1033C000432002B010BD10B5846B236840F23A521E
:1033D0009A632046FFF7E6FF012384F83430002388
:1033E00023630538012805D9A36B53B92046FFF79D
:1033F000B0FD10BD2068FFF70DFBA36B0343A36373
:10340000F2E72046FFF7A4FDF3E710B5846B2368CD
:1034100040F23A529A632046FFF7C4FF012384F832
:103420003430002323630538012805D9A36B53B931
:103430002046FFF78EFD10BD2068FFF7EBFAA36B67
:103440000343A363F2E72046FFF782FDF3E70000A2
:1034500038B50446056B03685A6B12F4004F02D06E
:1034600015F0080F28D15A6B12F4807F5AD04FF410
:1034700080729A632268D36B23F4434323F03A03A8
:10348000D3632268D36A23F00103D36215F0080FD7
:1034900026D015F0220F12D1236840F23A529A63D7
:1034A000012384F834300023236315F0030F13D075
:1034B0002046FFF74CFD01E0FFF724FC38BD2068F3
:1034C000FFF7A8FA03460028E6D0A26B1343A363D4
:1034D0002046FFF73DFDDFE72046FFF737FDEDE72C
:1034E00015F0800FEAD015F0200F0ED115F0030F64
:1034F000E4D12268D36A23F00803D362012384F85D
:1035000034302046FFF722FDD8E72068FFF782FA23
:1035100003460028EAD0A26B1343A3632046FFF7BB
:1035200017FDE3E75A6B12F4804F02D015F0080F35
:1035300055D1596B40F23A221142BFD05A6B12F06A
:10354000020F03D0A26B42F00202A2635A6B12F088
:10355000080F03D0A26B42F00802A2635A6B12F06C
:10356000200F03D0A26B42F02002A2635A6B12F02C
:10357000100F03D0A26B42F01002A2635A6B12F438
:10358000007F03D0A26B42F00802A26340F23A72BD
:103590009A632268D36B23F44E7323F00203D36340
:1035A0002068FFF737FAA36B0343A36315F0080FF6
:1035B00019D115F0800F81D015F0300F1CD115F006
:1035C000030F26D0236C184A1A65206CFEF718FEEC
:1035D00000283FF473AF206CFFF717FF6EE720461B
:1035E000FFF7ACFB6AE7012384F834300023236340
:1035F0002046FFF7ADFC61E7E36B0C4A1A65E06B10
:10360000FEF7FEFD00283FF459AFE06BFFF7DBFE4D
:1036100054E70023A363012284F834202363204667
:10362000FFF797FC4AE700BF0B340008C7330008D8
:1036300030B4036A23F001030362036A42688469B9
:1036400024F073040D682C4323F0020C8B6843EACA
:103650000C03104DA84203D005F58065A84205D1A2
:1036600023F00803CD682B4323F00403094DA8423F
:1036700003D005F58065A84205D122F440724D695A
:103680002A438D692A43426084614A684263036227
:1036900030BC70470000014030B4036A23F48073EB
:1036A0000362036A4268C46924F0730C0C6844EA3C
:1036B0000C0523F400738C6843EA0423114CA042E8
:1036C00003D004F58064A04206D123F40063CC68E3
:1036D00043EA042323F480630A4CA04203D004F598
:1036E0008064A04207D122F440524C6942EA04129D
:1036F0008C6942EA04124260C5614A68C26303628F
:1037000030BC70470000014030B4036A23F480539A
:103710000362036A4468C26922F4E6420D6842EA21
:10372000052223F400538D6843EA0533094DA8426E
:1037300003D005F58065A84204D124F480444D6986
:1037400044EA85144460C2614A680264036230BC82
:10375000704700BF0000014010B4036A046A24F0FF
:1037600001040462846924F0F00C4CEA021223F094
:103770000A030B43826103625DF8044B704710B487
:10378000046A24F0100404628469036A24F4704C0F
:103790004CEA023223F0A00343EA01138261036280
:1037A0005DF8044B7047836823F070030B4343F0CC
:1037B00007038360704770477047704770477047D2
:1037C000704710B5044603681A6912F0020F11D051
:1037D000DA6812F0020F0DD06FF002021A610123B5
:1037E000037703689B6913F0030F70D0FFF7E6FFC0
:1037F0000023237723681A6912F0040F12D0DA68C5
:1038000012F0040F0ED06FF004021A610223237726
:1038100023689B6913F4407F5FD02046FFF7CEFFFB
:103820000023237723681A6912F0080F12D0DA6890
:1038300012F0080F0ED06FF008021A6104232377EC
:103840002368DB6913F0030F4ED02046FFF7B6FF65
:103850000023237723681A6912F0100F12D0DA6858
:1038600012F0100F0ED06FF010021A6108232377A8
:103870002368DB6913F4407F3DD02046FFF79EFFAD
:103880000023237723681A6912F0010F03D0DA6846
:1038900012F0010F36D123681A6912F0800F03D09D
:1038A000DA6812F0800F34D123681A6912F0400FE1
:1038B00003D0DA6812F0400F32D123681A6912F08F
:1038C000200F03D0DA6812F0200F30D110BDFFF7BF
:1038D00074FF2046FFF773FF8AE72046FFF76DFF6E
:1038E0002046FFF76CFF9BE72046FFF766FF204668
:1038F000FFF765FFACE72046FFF75FFF2046FFF7C5
:103900005EFFBDE76FF001021A612046FFF754FF2A
:10391000C1E76FF080021A61204600F0D6FAC3E7D3
:103920006FF040021A612046FFF74AFFC5E76FF0CB
:1039300020021A61204600F0C7FAC7E70368304A40
:10394000904212D0B0F1804F0FD0A2F57C4290424D
:103950000BD002F58062904207D002F5806290425F
:1039600003D002F57842904203D123F070034A68F5
:103970001343234A90422AD0B0F1804F27D0A2F5BA
:103980007C42904223D002F5806290421FD002F523
:10399000806290421BD002F57842904217D002F527
:1039A0007052904213D002F5806290420FD002F51F
:1039B000806290420BD0A2F59832904207D002F577
:1039C0008062904203D002F58062904203D123F4DA
:1039D0004073CA68134323F080034A6913430360AA
:1039E0008B68C3620B688362054B984203D003F572
:1039F0008063984201D10B690363012343617047DF
:103A00000000014040B310B5044690F83D30F3B1DA
:103A1000022384F83D30214651F8040BFFF78EFF56
:103A2000012384F8463084F83E3084F83F3084F82F
:103A3000403084F8413084F8423084F8433084F8D0
:103A4000443084F8453084F83D30002010BD80F8C3
:103A50003C30FDF799F8DBE70120704740B310B523
:103A6000044690F83D30F3B1022384F83D302146FE
:103A700051F8040BFFF762FF012384F8463084F805
:103A80003E3084F83F3084F8403084F8413084F888
:103A9000423084F8433084F8443084F8453084F868
:103AA0003D30002010BD80F83C30FFF784FEDBE79E
:103AB0000120704730B4036A23F010030362036AE5
:103AC0004468826922F4E6420D6842EA052223F046
:103AD00020038D6843EA0513114DA84203D005F574
:103AE0008065A84206D123F08003CD6843EA051320
:103AF00023F040030A4DA84203D005F58065A84293
:103B000007D124F440644D6944EA85048D6944EA90
:103B10008504446082614A688263036230BC7047F6
:103B20000000014038B590F83C30012B66D00446C7
:103B30000D46012380F83C300C2A5AD8DFE802F009
:103B4000075959591B595959305959594400006856
:103B5000FFF76EFD2268936943F0080393612268C2
:103B6000936923F0040393612268936929690B43E5
:103B7000936100203EE00068FFF79CFF2268936994
:103B800043F4006393612268936923F48063936133
:103B900022689369296943EA01239361002029E09F
:103BA0000068FFF779FD2268D36943F00803D36109
:103BB0002268D36923F00403D3612268D369296999
:103BC0000B43D361002015E00068FFF79DFD2268DC
:103BD000D36943F40063D3612268D36923F480631B
:103BE000D3612268D369296943EA0123D3610020A4
:103BF00000E00120002384F83C3038BD0220FCE7BF
:103C000010B4846824F47F4C42EA03220A4342EA57
:103C10000C0282605DF8044B704790F83C30012B39
:103C200078D010B50446012380F83C30022380F898
:103C30003D300268936823F47F4323F07703936059
:103C40000B68602B4CD029D8402B54D00CD9502B6A
:103C500022D1CA6849680068FFF77EFD50212068BC
:103C6000FFF7A1FD002005E0202B0DD009D9302B56
:103C70000AD00120012384F83D30002384F83C3031
:103C800010BD0BB1102B05D119462068FFF78BFD35
:103C90000020EFE70120EDE70120EBE7B3F5805FBF
:103CA00034D0B3F5005F0CD1CB684A6889680068EE
:103CB000FFF7A6FF2268936843F4804393600020D7
:103CC000D8E7702B24D1CB684A6889680068FFF771
:103CD00097FF2268936843F0770393600020C9E759
:103CE000CA6849680068FFF74AFD60212068FFF74D
:103CF0005AFD0020BEE7CA6849680068FFF72CFD3E
:103D000040212068FFF74FFD0020B3E70020B1E716
:103D10000120AFE70220704701F01F01012303FAE1
:103D200001FC036A23EA0C030362036A02FA01F14D
:103D30000B4303627047000010B504460846002993
:103D400042D194F83E30DBB2013B18BF0123002B77
:103D50006ED1002851D1022384F83E300122014661
:103D60002068FFF7D9FF2368334A934203D002F556
:103D70008062934203D15A6C42F400425A64236831
:103D80002D4A934249D0B3F1804F46D0A2F57C42F0
:103D9000934242D002F5806293423ED002F58062A7
:103DA00093423AD002F57842934236D002F57052EF
:103DB000934232D0A2F5943293422ED01A6842F048
:103DC00001021A60002032E0042908D008290DD031
:103DD00094F84130DBB2013B18BF0123B7E794F8F8
:103DE0003F30DBB2013B18BF0123B0E794F840300D
:103DF000DBB2013B18BF0123A9E7042805D008283E
:103E000007D0022384F84130A8E7022384F83F302A
:103E1000A4E7022384F84030A0E79A6802F0070282
:103E2000062A07D01A6842F001021A60002010BD6D
:103E30000120FCE70020FAE70000014090F83C3048
:103E4000012B3DD010B4012380F83C30022380F8D0
:103E50003D3003685A689C6822F0700C0A6842EA98
:103E60000C025A600368174A93421AD0B3F1804F8C
:103E700017D0A2F57C42934213D002F580629342A0
:103E80000FD002F5806293420BD002F57842934244
:103E900007D002F57052934203D0A2F594329342B8
:103EA00004D124F080044A6814439C60012380F804
:103EB0003D30002380F83C3018465DF8044B7047D5
:103EC000022070470000014070477047026802F10D
:103ED0000C0353E8003F23F490730C3242E80031A6
:103EE0000029F3D1026802F1140353E8003F23F0E4
:103EF0000103143242E800310029F3D1036B012B96
:103F000005D0202380F83E30002303637047026809
:103F100002F10C0353E8003F23F010030C3242E897
:103F200000310029F3D1ECE790F83D30DBB2212BD2
:103F300001D0022070478368B3F5805F17D0036A11
:103F40005A1C02621A7803685A60C38C9BB2013B08
:103F50009BB2C3844BB90268D36823F08003D3605B
:103F60000268D36843F04003D360002070470369C0
:103F7000002BE4D1036A1B880268C3F30803536073
:103F8000036A02330362E0E738B504460268136946
:103F900023F44053C1680B431361836802691343E0
:103FA00042691343C2691A430168CB6823F416437C
:103FB00023F00C031343CB600268536923F440736E
:103FC00081690B4353610368314A934206D002F57D
:103FD0008062934202D0FDF727FE01E0FDF734FE38
:103FE000E369B3F5004F29D00021031849411B189C
:103FF00041F10001C90041EA5371DB001818636800
:104000004FEA83024FEA937341F10001FCF730F964
:10401000204DA5FB00325109642303FB11031B0152
:104020003233A5FB03235B0903F0F00202EB01121C
:1040300003F00F03216813448B6038BD002302187E
:1040400043EB0301121841F10001C90041EA52712A
:10405000D200101841F10001626892185B41FCF730
:1040600007F90C4DA5FB00325109642303FB110332
:10407000DB003233A5FB03235B095A0002F4F8721C
:1040800002EB011203F00703216813448B60D4E7AD
:10409000001001401F85EB512DE9F84305460F46FE
:1040A00016469946DDF820802C68246837EA040318
:1040B0000CBF4FF0010C4FF0000CB4452DD1B8F1FE
:1040C000FF3FF1D0B8F1000F05D0FEF753FAA0EB97
:1040D00009004045E8D92A6802F10C0353E8003F83
:1040E00023F4D0730C3242E800310029F3D12A685E
:1040F00002F1140353E8003F23F00103143242E8B5
:1041000000310029F3D1202385F83D3085F83E3079
:10411000002385F83C30032000E00020BDE8F88350
:1041200058B310B5044690F83D300BB3242384F8FF
:104130003D302268D36823F40053D3602046FFF754
:1041400023FF2268136923F49043136122685369A3
:1041500023F02A0353612268D36843F40053D360E9
:1041600000202064202384F83D3084F83E3010BDC8
:1041700080F83C30FCF7E4FDD8E7012070472DE9DA
:10418000F04182B01E4690F83D30DBB2202B54D176
:1041900004460D469046002953D0002A53D090F88B
:1041A0003C30012B51D0012380F83C3000230364C4
:1041B000212380F83D30FEF7DDF90746A4F824807E
:1041C000A4F82680A368B3F5805F05D04FF00008FF
:1041D000002384F83C3012E0236913B14FF000084B
:1041E000F6E7A8460025F3E738F8023B2268C3F358
:1041F00008035360E28C92B2013A92B2E284E38CFB
:104200009BB273B100963B46002280212046FFF707
:1042100043FFE0B9002DE7D015F8012B23685A6061
:10422000E8E700963B46002240212046FFF734FF96
:1042300078B9202384F83D3000E0022002B0BDE8C8
:10424000F0810120FAE70120F8E70220F6E70320D9
:10425000F4E70320F2E7704708B50168CA6822F066
:104260004002CA60202280F83D20FFF7F4FF0020C2
:1042700008BD7047704708B5806B0023C385C384B1
:10428000FFF7F8FF08BD704790F83E30DBB2222BF5
:1042900067D18368B3F5805F4DD0826AB3F5805FE4
:1042A00004D0002B54D10369002B51D103685B6803
:1042B0001370836A01338362C38D9BB2013B9BB24F
:1042C000C385002B4FD100B583B00268D36823F0BB
:1042D0002003D3600268D36823F48073D36002683C
:1042E000536923F001035361202380F83E30036BB0
:1042F000012B33D100230363026802F10C0353E85E
:10430000003F23F010030C3242E800310029F3D1C2
:1043100003681A6812F0100F06D0002201921A6882
:1043200001925B680193019B818DFFF7ACFF002038
:1043300003B05DF804FB0269002AAED1826A03680B
:104340005B68C3F308031380836A02338362B3E7B5
:1043500003685B6803F07F031370AAE7FFF789FF28
:10436000E5E70220704700207047000030B583B0B9
:10437000044602681368D068516913F00F0505D12F
:1043800013F0200F02D010F0200F19D12DB111F031
:10439000010119D110F4907F16D1216B01297DD034
:1043A00013F0800F03D010F0800F40F0158113F050
:1043B000400F03D010F0400F40F0128103B030BD29
:1043C0002046FFF761FFF9E713F0010F06D010F464
:1043D000807F03D0226C42F00102226413F0040FAC
:1043E00004D019B1226C42F00202226413F0020FD1
:1043F00004D019B1226C42F00402226413F0080FB9
:1044000007D010F0200F00D119B1226C42F0080241
:104410002264226C002AD1D013F0200F02D010F0B9
:10442000200F29D123685B6903F04003226C12F04E
:10443000080F00D163B32046FFF748FD23685B698E
:1044400013F0400F20D0226802F1140353E8003F1C
:1044500023F04003143242E800310029F3D1A36B6A
:1044600073B1614A1A65A06BFDF7CAFE0028A5D09A
:10447000A06B036D9847A1E72046FFF705FFD1E742
:104480002046FFF7F7FE99E72046FFF7F3FE95E792
:104490002046FFF7EFFE002323648FE713F0100F91
:1044A0003FF47EAF10F0100F3FF47AAF002301937A
:1044B0001368019353680193019B536913F0400FF4
:1044C00050D0A26B13685B689BB2002B3FF476AFB1
:1044D000A18D99427FF672AFE385D369B3F5807FF2
:1044E00037D0226802F10C0353E8003F23F48073B5
:1044F0000C3242E800310029F3D1226802F11403A2
:1045000053E8003F23F00103143242E80031002950
:10451000F3D1226802F1140353E8003F23F0400373
:10452000143242E800310029F3D1202384F83E30D0
:1045300000232363226802F10C0353E8003F23F0B9
:1045400010030C3242E800310029F3D1A06BFDF7D3
:104550000DFEA18DE38D9BB2C91A89B22046FFF7EB
:1045600092FE2BE7A18DE38D9BB2C91A89B2E38D30
:104570009BB2002B3FF422AF00293FF41FAF22680B
:1045800002F10C0353E8003F23F490730C3242E82D
:1045900000300028F3D1226802F1140353E8003FF1
:1045A00023F00103143242E800300028F3D1202325
:1045B00084F83E3000232363226802F10C0353E8A1
:1045C000003F23F010030C3242E800300028F3D102
:1045D0002046FFF758FEF1E62046FFF7A5FCEDE682
:1045E0002046FFF739FEE9E677420008034AD2F891
:1045F000883043F47003C2F88830704700ED00E063
:1046000000B587B0002301930293039304930593AD
:1046100000932548254A026043607F228260FF2282
:10462000C26003614361836100F09DF890BB00218B
:104630001D4800F045FA45F25003984227D0202348
:104640008DF8043040238DF8053000238DF80630B6
:1046500004930593012201A9134800F0F1F8E0B991
:1046600001228DF8002003238DF8013006238DF8F8
:10467000023023238DF8033069460B4800F05FF9C0
:1046800070B945F250020021074800F014FA07B053
:104690005DF804FBFBF76EFFC9E7FBF76BFFDFE795
:1046A000FBF768FFEDE700BFB423002000280040BF
:1046B00000B585B000230093019302930393026831
:1046C0000B4B9A4202D005B05DF804FB0223009325
:1046D0004FF4807303936846FDF7C6FA20B9054B83
:1046E0000122C3F83C2EEEE7FBF744FFF7E700BFDB
:1046F000002800400000474238B504460268D368ED
:1047000023F0A003D360FDF735FF05462368DB687F
:1047100013F0200F07D1FDF72DFF401BB0F57A7F76
:10472000F4D9032000E0002038BD38B50368DA680A
:1047300012F0400F01D0002038BD04464FF0FF3288
:10474000DA60FDF717FF05462368DB6813F0400FBA
:1047500007D1FDF70FFF431BB3F57A7FF4D9032090
:10476000EAE70020E8E738B500285CD00446437F3C
:10477000002B41D0022363772368CA225A62236840
:1047800053225A622046FFF7D0FF0546002837D152
:104790002268936823F4E00323F0400393602168C8
:1047A0008A686368206903436069034313438B602D
:1047B0002368E2681A6122681369A16843EA014329
:1047C00013612268D36823F08003D36023689B6859
:1047D00013F0200F1BD02268136C23F48023136482
:1047E0002268136CA1690B4313642368FF225A6289
:1047F00001236377284638BD0377FFF759FFB9E7F0
:104800002368FF225A62042363770125F2E72046DA
:10481000FFF772FF0028DED02368FF225A620423CC
:1048200063770125E6E70125E4E7002302E0013391
:104830000A38C0B20928FAD81B01DBB21843704706
:10484000F8B5037F012B78D004460E460123037789
:1048500002234377002A47D103689B6813F0400F77
:1048600001D10023CB703078FFF7DFFF05047078AB
:10487000FFF7DBFF45EA0025B078FFF7D6FF0543D9
:10488000F07845EA00452368CA225A622368532219
:104890005A622046FFF749FF0746002836D12368B1
:1048A00005F07F3525F0FE451D602268936823F4EE
:1048B0008023936021688B68F26830690243134358
:1048C0008B602268D36823F08003D36023689B68E1
:1048D00013F0200F23D02368FF225A62012363774D
:1048E000002323773846F8BD03689B6813F0400F18
:1048F00001D10023CB7035787078000240EA054082
:10490000B5782843F57840EA0545BCE72368FF22DF
:104910005A6204236377002323770127E2E72046C6
:10492000FFF7EAFE0028D6D02368FF225A6204234C
:104930006377002323770127D4E70227D2E770B5F6
:10494000037F012B66D004460E4601230377022322
:1049500043773AB94B7813F0100F03D003F0EF030D
:104960000A334B70002A33D1F078FFF75EFF05045D
:104970007078FFF75AFF45EA0025B078FFF755FF3A
:104980000543307845EA40352368CA225A622368D5
:1049900053225A622046FFF7C8FE064618BB23681A
:1049A00025F07F4525F0C0055D602268D36823F0BF
:1049B0008003D36023689B6813F0200F1CD023680A
:1049C000FF225A620123637700232377304670BDAC
:1049D000F5787078000240EA0540B57828433578CC
:1049E00040EA4535D0E72368FF225A620423637703
:1049F000002323770126E9E72046FFF77DFE002804
:104A0000DDD02368FF225A620423637700232377D3
:104A10000126DBE70226D9E7030903EB830300F055
:104A20000F0000EB4300C0B2704770B50C4603683E
:104A30009B6A4B6003681B69C3F30E038B600368BA
:104A40001D68C5F30641C5F305402070C5F3062671
:104A5000667005F07F05A57001F04003E37052B960
:104A6000FFF7DAFF20703046FFF7D6FF6070284668
:104A7000FFF7D2FFA070002070BD70B503685B68BF
:104A8000C3F30740C870C3F304264E7003F03F051C
:104A90008D70C3F342330B705AB90C46FFF7BCFF5D
:104AA000E0703046FFF7B8FF60702846FFF7B4FFAC
:104AB000A070002070BD0368503343F82120704778
:104AC0000368503353F821007047000000B583B0ED
:104AD00000230193264A116B41F480011163126B8C
:104AE00002F480020192019A2248234A0260436044
:104AF00080228260C3604FF4806202614FF40062E2
:104B000042614FF400528261C3614FF4403202624D
:104B10000422426203228262C3620363FDF7C0FA89
:104B200010BB002211463820FDF77EFC3820FDF72F
:104B3000B3FC002211463B20FDF776FC3B20FDF73D
:104B4000ABFC002211464520FDF76EFC4520FDF729
:104B5000A3FC002211464620FDF766FC4620FDF727
:104B60009BFC03B05DF804FBFBF704FDD9E700BF35
:104B700000380240D4230020106402402DE9F047A1
:104B8000324800F067FE00285CD1304B998FD3F893
:104B9000408029B94FF0000A2C4B1B6B00213AE0F2
:104BA0004FF4C17202F08CF882460028F4D0274BF3
:104BB0001F6B8146002421E0D9F80400C4F5BE62D1
:104BC000043208EB0401304408F0E0F9FF68D7F83C
:104BD0000880A5F2F452361B06F2F4560024A518FC
:104BE00040F2F4539D42E7D8D9F8040008EB0401E1
:104BF000304408F0CBF9D9F800902C46B9F1000FF9
:104C0000CAD0B9F80A200026E9E71A6842F0004243
:104C10001A60DB6801310D4A926B8A42F5D80B4B62
:104C200000229A631B6803F58052526912F0800FCC
:104C300005D003F5805380225A6100229A605046C5
:104C4000BDE8F0874FF0000AF9E700BFD854002014
:104C50002DE9F84F8B462B4BDE6AD6F808A00024CE
:104C60002746BBF1000F32D03368002B35DBBBF891
:104C70000A90002504EB090840F2F453984519D92D
:104C8000DBF80410C4F5BE62043229440AEB0400C8
:104C900008F07CF9F6683368002B21DBD6F808A011
:104CA000A8F2F4592D1B05F2F4553F1B07F2F457F7
:104CB0000024DFE7DBF804104A4629440AEB04002D
:104CC00008F064F94F44DBF800B04446C9E73946C0
:104CD0000C4800F029FD002004E06FF0070001E01F
:104CE0006FF00700074B1B6803F58052526912F002
:104CF000200F05D003F5805320225A6100225A600C
:104D0000BDE8F88FD854002030B583B004462E4853
:104D10002E4B0360012343604FF4804383604FF4C4
:104D20000063C360002303828DF8003080228DF879
:104D30000120E1228DF802208DF803308DF8043037
:104D40008DF80530C0F814D08361C3614FF40003BF
:104D5000036200F087FE28B994F82D3043F0040375
:104D600084F82D30184D0423194A1A49284600F0BA
:104D70005DFC0423184A1949284600F097FC0623D5
:104D800084F82C306B691A7884F826205A7884F8D5
:104D900027209A7884F82820DA7884F829201A794C
:104DA00084F82A205B7984F82B3040F2DC53A3840A
:104DB00094F82D3043F00A0384F82D30284600F093
:104DC0007DFF03B030BD00BFD854002000800240FA
:104DD000083D0020B4240020382500203424002081
:104DE000F0B58DB000230793089309930A930B93B2
:104DF0000268374B9A4201D00DB0F0BD00240194F7
:104E0000A3F590431A6B42F000721A631A6B02F01A
:104E100000720192019A02941A6B42F080621A6346
:104E20001A6B02F080620292029A03941A6B42F0AB
:104E300000621A631A6B02F000620392039A0494F0
:104E40001A6B42F004021A631A6B02F00402049215
:104E5000049A05941A6B42F001021A631A6B02F06D
:104E600001020592059A06941A6B42F040021A63F9
:104E70001B6B03F040030693069B32230793022724
:104E8000089703260A960B250B9507A91148FCF7EE
:104E900095FF86230793089709940A960B9507A90F
:104EA0000D48FCF78BFF4FF4D04307930897099404
:104EB0000A960B9507A90948FCF780FF2246214670
:104EC0003D20FDF7B1FA3D20FDF7E6FA94E700BF7B
:104ED000008002400008024000000240001802402A
:104EE00038B50446FFF74AFE20B10546236921463E
:104EF000984700B938BD284601F080FEFAE7000067
:104F000010B5044670B1732384F82E30742384F8EE
:104F10002F30084B6361084BA3612046FFF7F4FE76
:104F2000002010BD054B40F203220549054808F05A
:104F300023F9E8E759BE0008514C000858E2000880
:104F400074E2000884E2000808B5FDF713FB08BD11
:104F500010B582B0044600230193FDF70BFB134B01
:104F60001B68C31AC72B01D802B010BDFDF702FBA6
:104F70000E4B186001AA01210D4800F0FDFC019BB9
:104F800003F00403019394F82D2012F0040F00D1D4
:104F900043B912F0040FE7D0002BE5D1204601F011
:104FA000FDFCE1E7204601F0D5FCDDE734250020DB
:104FB000D85400207047000030B583B00446002369
:104FC0000193009390F82D3013F0040F51D02B4B28
:104FD0005B68002B35D04FF480520021274800F049
:104FE00007FDFDF7C7FA01906A460121234800F04A
:104FF000C3FCFDF7BFFA019BC31AB3F57A7F20D833
:10500000009B13F0200FEFD06A461F211B4800F0D1
:10501000B3FC009B13F0100F0AD0184A4FF4006144
:10502000D16013F0040F07D0144B00229A6013E0F4
:10503000124A0021D160F4E7104B4FF480429A608D
:105040000AE00E48C268C2F3CF028368C3F34F037D
:105050001A43002100F0CCFC084D0021284600F046
:1050600071FE284600F02AFE2046FFF7A3FF03B09A
:1050700030BD024800F044FEF6E700BFD8540020DF
:1050800010B50C46044808F0FDF80449204602F02B
:1050900033FA002010BD00BFACE2000869510008DF
:1050A00030B583B01B4DC023AB71A823EB7108232F
:1050B0002B7204236B7202F08DFD174C2060AA79CD
:1050C000EB791B0443EA02632A7A43EA0223697AF2
:1050D0000B431A0202F47F0242EA0162190A01F448
:1050E0007F410A4342EA136301930C4808F0CAF86F
:1050F0000B4B41F6957201A9206802F06DFA01464A
:10510000084808F039F80849206802F00FFA03B09F
:1051100030BD00BF6C5500202C550020BCE20008BB
:1051200081500008D4E200082D51000808B5094854
:1051300008F022F8084808F0A5F8084808F0A2F896
:10514000074B186802F0F2FD064808F09BF8FFF7DD
:10515000A7FF08BDECE2000804E3000818E300081C
:105160002C55002028E3000830B587B00D46A2B1C9
:1051700014461189284602F045F92289616801A880
:1051800007F004FF22890021606807F00DFF204628
:1051900001F034FD002007B030BD002BFAD10448E7
:1051A00008F070F8284602F0C1FDFFF779FFF1E73B
:1051B00038E3000838B50A46054D01230146286842
:1051C00005F046F80446286805F006FE204638BD7E
:1051D0002C550020F0B585B03D4FC0203870A82177
:1051E00079700822BA709C23FB703A4EFF2333700B
:1051F0007370B3700024F470374D28706970AA7012
:105200000123EB7000F0D3FE3A787B781B0443EA6D
:105210000263BA7843EA0223F9780B431A0202F4D4
:105220007F0242EA0162190A01F47F410A4342EA1D
:1052300013632A490B60327873781B0443EA0263D4
:10524000B27843EA0223F07803431A0202F47F02A1
:1052500042EA0062180A00F47F40024342EA136304
:105260001F4A136028786B781B0443EA0063A87810
:1052700043EA0023ED782B43180200F47F0040EA54
:1052800005601D0A05F47F45284340EA1360154B6D
:105290001860154D15480290154801900094284655
:1052A00001F082FA284601F011FB95F82D3013F039
:1052B000040F08D0284601F00FFB0E490A4801F000
:1052C0008BFB05B0F0BD084801F024FBF5E700BFFB
:1052D0002455002028550020205500206855002026
:1052E000845500206455002030550020755E00086C
:1052F000014F0008B94F000810B5054C2046FFF7D4
:1053000027FE2046FFF7ECFD06F052F810BD00BF67
:10531000305500205079137943EA002307480B5099
:10532000D07893781B0443EA0063507843EA002363
:1053300012781343024A8B50704700BF40800240EE
:1053400044800240036803F580539A6942F4005296
:105350009A617047036803F580539A6922F40052FA
:105360009A617047036803F580539A6942F002021C
:105370009A617047036803F580539A6922F002022C
:105380009A61704782B0084B1B68084AA2FB03234E
:105390005B0A00FB03F3019300BF019B5A1E0192BD
:1053A000002BF9D102B0704708000020D34D6210E5
:1053B00010B582B00446002301930268136843F0DD
:1053C0000803136003681B6801930120FFF7DAFFED
:1053D0002368019A1A6002B010BD10B582B004466D
:1053E000002301930268136843F004031360036809
:1053F0001B6801930120FFF7C5FF2368019A1A601B
:1054000002B010BD10B582B00446002301930368BA
:1054100003F580539A6942F480129A61036803F598
:1054200080539B6901930120FFF7ACFF2368019A29
:1054300003F580539A6102B010BD10B582B00446E6
:10544000002301930268136823F0040313600368C8
:105450001B6801930120FFF795FF2368019A1A60EA
:1054600002B010BD10B582B004460023019302685B
:10547000136823F00803136003681B68019301207D
:10548000FFF780FF2368019A1A6002B010BD000088
:105490002DE9F041AEB0054629B14FF40063C36079
:1054A0004FF480438360002311931293139314935A
:1054B00015931693EB69002B40F0A5804FF48063A1
:1054C00017934FF400731893002419941A941B94A3
:1054D0001C941D9440271E971F942094219422947D
:1054E00023942494259426948026279628942994FE
:1054F0002A942B942C942D9429680B68484A1A40BE
:10550000AB68E86803431798034343F400731343FD
:105510000B602B68D3F800800120FDF731F82B6871
:10552000C3F800802B685F602B685F680120FDF77F
:1055300027F82B685F602B689C602B68DC602A680A
:10554000936923F0BE031B041B0C334393612B6848
:105550009F690120FDF714F82B689F612B68DC61BF
:105560002B68DF690120FDF70BF82B68DF610194E0
:105570004FF00073029303944FF4001204920594C9
:10558000069407940894042209920A934FF48033F6
:105590000B934FF480030C934FF400530D930E962E
:1055A0000F9410942A6802F5805291691D4B0B40AC
:1055B00043F0087343F0040393612B6803F58053B1
:1055C0009C690120FCF7DCFF2B6803F580539C618C
:1055D0002B6803F58053144A1A602B6803F5805337
:1055E0001C680120FCF7CCFF2B6803F580531C607E
:1055F000AB69012B0AD06A6900212846FFF78AFEB1
:105600002EB0BDE8F081002317935AE72A6802F50F
:105610008052D36943F4803343F04003D361EAE717
:105620000F8120FF233FDEF88020C10230B590F8C3
:105630004540012C38D0012480F84540022480F8F0
:105640004440C1624FF0000C03E0CEF80C100CF1A6
:10565000010C9C451CD24FEA4C1501EB4C1E4FF43B
:1056600080144C5140F2F45404FB0C24CEF8084052
:10567000C4691CB94C5944F440044C515C1E644547
:10568000E3D90CF1010401EB4414CEF80C40DEE741
:10569000036803F580531961012380F84430002327
:1056A00080F84530184630BD0220FCE730B590F850
:1056B0004540012C36D0012480F84540022480F872
:1056C000444081624FF0000C03E0CEF80C100CF166
:1056D000010C9C451AD24FEA4C1401EB4C1E4FF0C2
:1056E00000450D5144F2F454CEF8044040F2F45415
:1056F00004FB0C24CEF808405C1E6445E5D90CF18F
:10570000010401EB4414CEF80C40E0E7036803F514
:105710008053D960012380F84430002380F845305D
:10572000184630BD0220FCE790F84530012B00F010
:105730008A80012380F84530022380F84430C9B1C3
:10574000C36A1A68002A1DDB10B440F2F452914279
:1057500020D93E4AA2FB012C4FEA9C2C40F2F45285
:1057600002FB1C120AB10CF1010CBCF1010F11D0AB
:1057700000234AE0012380F84430002280F84520CD
:1057800018467047122380F84430002380F84530D3
:10579000012070471A6842F040521A60C36AC1F390
:1057A0000C015960C26A136843F000431360C36A76
:1057B000DB68C362036803F58052526912F0040F7C
:1057C00008D003F5805304225A61036803F580531F
:1057D00000225A60012380F84430002380F84530CD
:1057E00018465DF8044B7047C26A40F2F4545460A6
:1057F0000CF1FF329A4217D0C46A226842F000428C
:105800002260C26AD268C26201339C45D2D9C46A9E
:10581000226822F040522260002BE5D1C46A22683F
:1058200042F080522260DFE7C46A226842F00052F0
:105830002260074A02FB0C1202F2F452C46AC2F35D
:105840000C026260D8E70220704700BF0BB002ACC8
:105850000CFAFFFF90F84530012B40D0012380F86F
:105860004530022380F84430836A1A68002A0EDB30
:105870001A6812F4807F12D11A6812F4007F28D0BF
:1058800003630022426301228263DB688362012397
:1058900080F84430002280F8452018467047826B1B
:1058A00001328263012A12D043631A68C2F30D42A7
:1058B000043AC263026B92680264DB68836201236C
:1058C00080F84430002380F8453018467047036361
:1058D000EAE7826B01328263DB688362D7E70220EA
:1058E000704770477047704710B50446036803F56A
:1058F0008052526912F0400F13D103F580535B6957
:1059000013F0010F1BD1236803F580534FF480324D
:105910005A61236803F580535B6913F4004F1BD170
:1059200010BDFFF7DFFF236803F5805340225A6163
:10593000012384F84430002384F84530E3E7FFF77F
:10594000D0FF236803F5805301225A6184F8442074
:10595000002384F84530D6E72046FFF7C4FF2368CC
:1059600003F580534FF400425A61012384F8443018
:10597000002384F84530D3E7F8B590F84430DBB223
:10598000822B33D005461646822380F844300068C7
:10599000026902F01C022B8ADB029BB213438C01CA
:1059A00004F4F8641C4344F001040461FCF7E2FDD4
:1059B000074601E02B681C6914F0010F0DD0FCF7BD
:1059C000D9FDC31BB3F5803FF4D3012385F84430E0
:1059D000002385F84530032007E02B685B699BB204
:1059E0003360012385F844300020F8BD0220FCE735
:1059F00090F84430DBB2422B32D070B505464223DA
:105A000080F844300668306900F01C002B8ADB0205
:105A10009BB203438C0104F4F8641C4344F0030478
:105A200092B272612B681C61FCF7A4FD064601E08E
:105A30002B681C6914F0010F0DD0FCF79BFD831B34
:105A4000B3F5803FF4D3012385F84430002385F873
:105A50004530032003E0012385F84430002070BD69
:105A60000220704770B582B000230193002800F037
:105A70000E81044690F84430002B34D0002300936C
:105A8000844B5A6C42F480425A645B6C03F480434A
:105A90000093009B804B5A6822F400025A605A68B7
:105AA000216A0A435A60236803F580531A6842F05A
:105AB00001021A60FCF75EFD0546236803F580527B
:105AC000126812F0010F13D0FCF754FD401BB0F523
:105AD000FA7FF2D9032584F84450002384F8453036
